:020000040000FA
:100000000C946F080C94F2220C94CB220C94970859
:100010000C9497080C9497080C9497080C949708E4
:100020000C9497080C9497080C9497080C949708D4
:100030000C9497080C9497080C9497080C949708C4
:100040000C9481220C9497080C944F220C94292232
:100050000C9497080C9497080C9497080C949708A4
:100060000C9419230C94970800000000003E5B4F8D
:100070005B3E3E6B4F6B3E1C3E7C3E1C183C7E3C08
:10008000181C577D571C1C5E7F5E1C00183C180016
:10009000FFE7C3E7FF0018241800FFE7DBE7FF30A6
:1000A000483A060E2629792926407F050507407F14
:1000B00005253F5A3CE73C5A7F3E1C1C08081C1C87
:1000C0003E7F14227F22145F5F005F5F06097F017D
:1000D0007F006689956A606060606094A2FFA29468
:1000E00008047E040810207E201008082A1C080836
:1000F0001C2A08081E101010100C1E0C1E0C303884
:100100003E3830060E3E0E06000000000000005F84
:1001100000000007000700147F147F14242A7F2AA0
:100120001223130864623649562050000807030062
:10013000001C2241000041221C002A1C7F1C2A08AE
:10014000083E080800807030000808080808000011
:1001500060600020100804023E5149453E00427F85
:10016000400072494949462141494D331814127FD4
:100170001027454545393C4A494931412111090774
:100180003649494936464949291E000014000000F5
:1001900040340000000814224114141414140041C7
:1001A00022140802015909063E415D594E7C121184
:1001B000127C7F494949363E414141227F414141BC
:1001C0003E7F494949417F090909013E4141517337
:1001D0007F0808087F00417F41002040413F017FA8
:1001E000081422417F404040407F021C027F7F0470
:1001F00008107F3E4141413E7F090909063E4151B9
:10020000215E7F09192946264949493203017F01A8
:10021000033F4040403F1F2040201F3F4038403FA9
:10022000631408146303047804036159494D4300BF
:100230007F4141410204081020004141417F0402F6
:10024000010204404040404000030708002054548D
:1002500078407F284444383844444428384444286B
:100260007F385454541800087E090218A4A49C78BE
:100270007F0804047800447D40002040403D007F1A
:100280001028440000417F40007C047804787C08FA
:100290000404783844444438FC18242418182424CE
:1002A00018FC7C08040408485454542404043F44B3
:1002B000243C4040207C1C2040201C3C4030403CE2
:1002C00044281028444C9090907C4464544C440042
:1002D00008364100000077000000413608000201A6
:1002E0000204023C2623263C1EA1A161123A404092
:1002F000207A38545455592155557941225454780F
:1003000042215554784020545579400C1E527212A7
:100310003955555559395454545939555454580030
:1003200000457C410002457D420001457C407D1234
:1003300011127DF0282528F07C5455450020545496
:100340007C547C0A097F4932494949323A44444441
:100350003A324A4848303A4141217A3A424020787C
:10036000009DA0A07D3D4242423D3D4040403D3C7D
:1003700024FF2424487E4943662B2FFC2F2BFF09A2
:1003800029F620C0887E0903205454794100004496
:100390007D413048484A32384040227A007A0A0A81
:1003A000727D0D19317D2629292F282629292926F4
:1003B00030484D4020380808080808080808382F39
:1003C00010C8ACBA2F102834FA00007B00000814C3
:1003D0002A142222142A14085500550055AA55AA99
:1003E00055AAFF55FF55FF000000FF00101010FF39
:1003F00000141414FF001010FF00FF1010F010F094
:10040000141414FC001414F700FF0000FF00FF1484
:1004100014F404FC141417101F10101F101F1414D0
:10042000141F00101010F0000000001F101010101A
:100430001F10101010F010000000FF10101010100E
:1004400010101010FF10000000FF140000FF00FF4C
:1004500000001F10170000FC04F4141417101714E8
:1004600014F404F40000FF00F7141414141414140A
:10047000F700F7141414171410101F101F1414147D
:10048000F4141010F010F000001F101F0000001FE7
:1004900014000000FC140000F010F01010FF10FF1A
:1004A000141414FF141010101F00000000F010FFAF
:1004B000FFFFFFFFF0F0F0F0F0FFFFFF0000000093
:1004C00000FFFF0F0F0F0F0F3844443844FC4A4A17
:1004D0004A347E02020606027E027E0263554941CC
:1004E000633844443C04407E201E2006027E020203
:1004F00099A5E7A5991C2A492A1C4C7201724C3017
:100500004A4D4D303048784830BC625A463D3E49ED
:100510004949007E0101017E2A2A2A2A2A44445F91
:10052000444440514A444040444A51400000FF0185
:1005300003E080FF000008086B6B08361236243693
:10054000060F090F060000181800000010100030F8
:1005500040FF0101001F01011E00191D1712003C80
:100560003C3C3C00000000000001020304050608BA
:10057000090A0B0D0E1012131517191B1D20222529
:10058000272A2D3033373A3E4145494D52565B5F5D
:1005900064696E74797F858B91979DA4ABB2B9C065
:1005A000C7CFD6DEE6EEF7FF000102030507090B11
:1005B0000E1114181D22282E363D464F59646F7CAB
:1005C0008997A6B6C7D9EBFF0000000024002700DA
:1005D0002A0000000000250028002B0053746172DF
:1005E00074696E67204C617365727461672072650F
:1005F00063657074696F6E00496E667261726564DE
:1006000020726563656976657220636F6E6E6563DF
:10061000746564206F6E2070696E20006E6F2064B8
:10062000657461696C0073686F77206465746169D3
:100630006C005374617274696E67206D6F64653A03
:1006400020004D6174726978206272696768746E07
:100650006573733A20004C4544204D61747269788B
:100660002076617269616E743A2000427574746F0D
:100670006E20636F6E6E6563746564206F6E2070AC
:10068000696E3A2000436F6D70696C65643A2000B2
:100690005374617274696E67207461726765742047
:1006A00073656E736F723A200049646C6500576120
:1006B0006974696E67004D61747269782064617253
:1006C0006B0049646C650049646C65004D6174722F
:1006D000697820746578743A2000446573637269A0
:1006E0007074696F6E3A20004D617472697820668B
:1006F0006C6173683A200049646C650053686F77D9
:10070000696E672068697420696E666F0053686F50
:1007100077696E672068697420696E666F00436F41
:10072000756E74696E67206F7574206869747300E4
:100730004E656172206D6973730044616D61676518
:100740003A20005465616D2049443A2000506C61A4
:100750007965722049443A20004C61736572576193
:100760007200576F57002064616D616765002068F3
:1007700065616C696E6700207374756E00496E6305
:100780006F6D696E67206869743A200042757474F1
:100790006F6E20707573682C206368616E67656486
:1007A000206272696768746E6573733A20004E6FD9
:1007B0002064657461696C0053686F7720646574A8
:1007C00061696C00427574746F6E206C6F6E672087
:1007D000707573682C206368616E676564206D6F47
:1007E00064653A2000000000002300260029000470
:1007F00004040404040404020202020202030303C8
:1008000003030301020408102040800102040810C1
:10081000200102040810200000000800020100006E
:1008200003040700000000000000005061636B65D6
:1008300074206465736372697074696F6E3A200026
:100840004F6E676F696E6720316D004F6E676F691D
:100850006E672031306D004F6E676F696E672036AE
:10086000306D004E6F207374756E005374756E009A
:100870004E6F20706F776572757000506F7765727C
:100880007570004E6F206865616C696E6700486521
:10089000616C696E670052616E646F6D003130305B
:1008A0002520726F756E642075702C206D696E69DD
:1008B0006D756D206F6620310037352520726F759C
:1008C0006E642075702C206D696E696D756D206F7A
:1008D0006620310035302520726F756E642075708A
:1008E0002C206D696E696D756D206F662031003248
:1008F000352520726F756E642075702C206D696EC1
:10090000696D756D206F662031003020706F696EE3
:10091000747320446F6573206E6F7420646F204180
:100920004E592064616D6167652E2055736566754B
:100930006C20666F72204D65646963207468617411
:1009400020646F6573206E6F74206865616C206A27
:100950007573742072656D6F766573206566666564
:10096000637473206F66204F6E676F696E672044F3
:10097000616D616765206F722072657365747320A5
:1009800074686520626C656564206F75742E003133
:100990003020706F696E7473003920706F696E74E7
:1009A00073003820706F696E7473003720706F6940
:1009B0006E7473003620706F696E7473003520702A
:1009C0006F696E7473206269672062616E67732C51
:1009D000204C415727732C206C6172676520736E21
:1009E00069706572207269666C6573206C696B65ED
:1009F000202E35302063616C73003420706F696E77
:100A00007473204C61726765206772656E616465FE
:100A100073003320706F696E74732053686F74674E
:100A2000756E732C206C6F7720706F7765726564BC
:100A3000206772656E61646573206574632E003291
:100A400020706F696E7473206D696C69746172795E
:100A50002063616C696272652C20736F206173730F
:100A600061756C74207269666C6573206574632EA1
:100A7000003120706F696E7420736D616C6C20633F
:100A8000616C6962726520726F756E64732C20737D
:100A90006F20706973746F6C7320616E6420736D66
:100AA00067277300556E6B6E6F776E2047726F7598
:100AB000700049676E6F726520576F5700456E75FD
:100AC0006D657261746520736F66747761726520FD
:100AD00076657273696F6E0047726F75702031357D
:100AE0002028436F6E66696775726174696F6E2046
:100AF00067726F7570290047726F757020313320EF
:100B00002852657365727665642C2069676E6F7212
:100B10006564290047726F75702031330047726F2A
:100B200075702031322028526164696174696F6E7A
:100B30002065666665637473290047726F7570205F
:100B400031310047726F75702031300047726F7518
:100B500070203920285265736572766564290047D4
:100B6000726F7570203820285265736572766564DF
:100B7000290047726F757020370047726F757020BB
:100B8000360047726F757020350047726F757020A0
:100B9000340047726F757020330047726F75702094
:100BA000320047726F757020310047726F75702088
:100BB000302044656661756C742067726F75702EA5
:100BC00020416C6C206E6F6E20444F54207765611D
:100BD000706F6E73206172652074726561746564F4
:100BE0002061732067726F757020300050617573DB
:100BF000696E6720446F5420726563657074696F15
:100C00006E00496E76616C6964207369676E616C11
:100C1000004E656172206D6973730047756E73686D
:100C20006F742068697400576F57206869740020DA
:100C30002F20496E76616C696420446F5420706186
:100C4000636B6574733A0056616C696420446F5439
:100C5000207061636B6574733A00202F20496E76B3
:100C6000616C696420626974733A00202F205661B8
:100C70006C696420737461727420626974733A00E1
:100C8000202F2056616C6964206F6E652062697444
:100C9000733A0056616C6964207A65726F206269EC
:100CA00074733A00456E6400206F662074696D6944
:100CB0006E672062756666657220757365640020D4
:100CC00072656365697665642043524320697320C9
:100CD000696E76616C69642100207265636569766E
:100CE0006564204352432069732076616C696421F6
:100CF00000496E76616C6964004C202D2062697435
:100D0000200031202D206269742000446F5420534C
:100D1000746172740020746F74616C29202D3E2000
:100D20000020280053796E63696E672077697468C4
:100D30002073746172742070756C73650044616D0A
:100D40006720646174613A20005465616D206461BC
:100D500074613A20004944206461746120203A2083
:100D6000004C617365725761722068697400202FAE
:100D700020496E76616C696420626974733A002060
:100D80002F20756E636C65617220626974733A001E
:100D9000202F2056616C6964206F6E652062697433
:100DA000733A0056616C6964207A65726F206269DB
:100DB00074733A00456E6400206F662074696D6933
:100DC0006E6720627566666572207573656400499A
:100DD0006E76616C6964004C202D2062697420007D
:100DE00031202D20626974200020746F74616C2999
:100DF000202D3E2000202800416464696E67207A1F
:100E000065726F2074696D696E672064617461003A
:100E10000D0A537461727420626974206C656E6788
:100E200074683A20004966206F6E2B6F6666203D1D
:100E3000207E31323030755320617373756D696E69
:100E400067207A65726F004F6E652020206269749A
:100E500020363030206F66662031323030206F6EA1
:100E6000005A65726F202062697420363030206F1E
:100E7000666620363030206F6E00537461727420C5
:100E80006269742032343030206F6E004C617365BB
:100E9000727761722070756C73652074696D696E0C
:100EA00067732C20616C6C2072656164696E677376
:100EB00020696E206D6963726F7365636F6E647312
:100EC000003D3D3D3D3D3D204C6173657257617273
:100ED000203D3D3D3D3D00446F54206D75737420B1
:100EE000706173732043524320636865636B002015
:100EF0007A65726F206269747320666F7220612058
:100F00006E656172206D69737300207A65726F205F
:100F10006269747320666F72206120686974004989
:100F200066206F6E2B6F6666203D207E35363075ED
:100F30005320617373756D696E67207A65726F00F7
:100F40004F6E6520202062697420313339206F6E26
:100F500020343137206F6666005A65726F20206238
:100F6000697420323738206F6E20323738206F6630
:100F7000662028576F57206C656761637929005395
:100F8000746172742062697420343137206F6E206E
:100F9000313339206F666600446F542070756C736E
:100FA000652074696D696E67732C20616C6C2072AA
:100FB000656164696E677320696E206D6963726F25
:100FC0007365636F6E6473003D3D3D3D3D20576F1B
:100FD000572F446F54203D3D3D3D3D00506175739A
:100FE000656420496E746572727570742053657201
:100FF0007669636520526F7574696E6520776869DC
:101000006C652077652070726F6365737320706103
:10101000636B657473002062797465730050756C3E
:1010200073652074696D696E6720617272617920E1
:1010300074616B657320002070756C73652077692F
:1010400064746873206F6E6C7900536176696E67A3
:10105000206D656D6F72792062792073746F72698B
:101060006E6720312F005573696E67206E6577209B
:1010700070756C73652074696D696E67206D657439
:10108000686F64004C61736572746167206C69629B
:10109000726172792076657273696F6E3A2000759D
:1010A0006E6B6E6F776E00677265656E0079656C4A
:1010B0006C6F7700626C75650072656400526573D1
:1010C000756D696E67204C6173657274616720721B
:1010D0006563657074696F6E00003424CF2B112432
:1010E0001FBECFEFD8E0DEBFCDBF25E0ACE2B3E05E
:1010F00001C01D92A939B207E1F713E0A0E0B1E009
:10110000E8ECFDE502C005900D92AC32B107D9F7CD
:1011100018E0CEE6D8E004C02197FE010E94DA2C48
:10112000CD36D107C9F70E94D0240C94D72E0C9449
:10113000000068278AE767FF80E066FF02C09DE342
:10114000892765FF02C096E8892764FF02C093E4FF
:10115000892763FF02C099EB892762FF02C094ECE4
:10116000892761FF02C092E6892760FF02C091E3F0
:101170008927089580915E04882329F18091840550
:10118000882329F1813031F1823039F1833041F106
:10119000843049F1853051F1863059F1873061F161
:1011A000883069F1893071F18A3079F18B3081F1C1
:1011B0008C3089F18D3091F18E3099F18F30A1F121
:1011C00090E080E0089580916D0490E0089581E0C2
:1011D00090E0089582E090E0089584E090E0089522
:1011E00085E090E0089587E090E008958AE090E03F
:1011F00008958FE090E0089581E190E0089584E102
:1012000090E0089589E190E008958EE190E00895DE
:1012100083E290E0089588E290E0089582E390E010
:1012200008958BE490E0089584E690E008952F926D
:101230003F924F925F926F927F928F929F92AF9266
:10124000BF92CF92DF92EF92FF920F931F93CF93B3
:10125000DF93CDB7DEB72E970FB6F894DEBF0FBE83
:10126000CDBF9D878C877D836C835F834E83398759
:1012700028871B870A878091910590919205892B79
:1012800009F420C190918D0580918E05FB0111829A
:101290001082FA0111821082F80111821082F90184
:1012A0001182108299838A8370E060E0B0E0A0E050
:1012B00022242A94322C44244A94542C66246A947E
:1012C0002FE7722E8FEF9FE7E981FA812191FA8350
:1012D000E983222309F4D6C0EC85FD85418D528D2A
:1012E0004115510509F486C02A3069F4FA0138968F
:1012F0003491EC85FD852589329FA00DB11D112407
:1013000070E060E0E1CF2D30F9F2FA0134963491CB
:101310003296E4912317C0F2E217B0F2FA01329646
:10132000E590F490231BF7E02F9FE00CF11C1124B3
:10133000F701329604910E87319624912B833196D2
:1013400084903196349131962491EC85FD851489F1
:10135000A12EB12C958807890023F1F00E85C02EAF
:10136000D12CC30ED11C37FDDA94CA9C7001CB9CE2
:10137000F00CDA9CF00C1124E60EF71EC084D18428
:10138000CE14DF044CF4FA013896E4919E9EA00D31
:10139000B11D112470E060E03103A0011124460F5B
:1013A000571F092D2003900111242A0F3B1F4817B6
:1013B00059070CF4CA01261537050CF439010E85BE
:1013C000019F400D511D11244150510944165506ED
:1013D0000CF42A014B81949E200D311D11242150C3
:1013E0003109221633060CF41901819E600D711D1E
:1013F00011246ACF2A3051F4EC85FD852589F8E067
:101400002F9F90011124A20FB31F7ACF2D3009F422
:101410005BCFEC85FD854489F6E04F9FA001112448
:10142000EC85FD852589F8E02F9F90011124EC853E
:10143000FD851789112361F000851185FB01E40FFB
:10144000F51F0E171F0724F4A20FB31F70E060E012
:10145000460F571FFA0131974E165F060CF42F0105
:101460002A0F3B1F21503109221633060CF41901B3
:10147000681779070CF4CB01A615B7050CF43D01EC
:10148000BA0122CF481659066CF0EC81FD81918398
:101490008083481A590AFFEF4F1A5F0AE885F985D9
:1014A00051824082261437046CF0EE81FF817182F4
:1014B000608226183708FFEF2F1A3F0AEA85FB855E
:1014C000318220822E960FB6F894DEBF0FBECDBFBC
:1014D000DF91CF911F910F91FF90EF90DF90CF9010
:1014E000BF90AF909F908F907F906F905F904F9044
:1014F0003F902F9008950895DB0114964D915C91D3
:1015000015976D917C91DC01ED91FC910280F38146
:10151000E02D0994AF92BF92CF92DF92EF92FF92AB
:101520000F931F93CF93DF936C017B018B01040F0B
:10153000151FEB015E01AE18BF08C017D10759F0A7
:101540006991D601ED91FC910190F081E02DC601E9
:101550000995892B79F7C501DF91CF911F910F91E3
:10156000FF90EF90DF90CF90BF90AF900895FC0177
:10157000538D448D252F30E0842F90E0821B930BF8
:10158000541710F0CF96089501970895FC01918D9E
:10159000828D981761F0A28DAE0FBF2FB11D5D96A1
:1015A0008C91928D9F5F9F73928F90E008958FEF43
:1015B0009FEF0895FC01918D828D981731F0828DF7
:1015C000E80FF11D858D90E008958FEF9FEF08954E
:1015D000FC01918D228D892F90E0805C9F4F821BB2
:1015E00091098F73992708958CEB93E00E94E80A84
:1015F00021E0892B09F420E0822F089580E090E01B
:10160000892B29F00E94F40A81110C94000008959E
:10161000FC01A48DA80FB92FB11DA35ABF4F2C9167
:10162000848D90E001968F739927848FA689B7895E
:101630002C93A089B1898C91837080648C93938D55
:10164000848D981306C00288F389E02D80818F7DF8
:1016500080830895EF92FF920F931F93CF93DF93B0
:10166000EC0181E0888F9B8D8C8D98131AC0E889DE
:10167000F989808185FF15C09FB7F894EE89FF89AD
:101680006083E889F98980818370806480839FBF4B
:1016900081E090E0DF91CF911F910F91FF90EF904B
:1016A0000895F62E0B8D10E00F5F1F4F0F7311275B
:1016B000E02E8C8D8E110CC00FB607FCFACFE88996
:1016C000F989808185FFF5CFCE010E94080BF1CF0B
:1016D000EB8DEC0FFD2FF11DE35AFF4FF0829FB70A
:1016E000F8940B8FEA89FB8980818062CFCF0F93BA
:1016F0001F93CF93DF938C01D0E0C0E0F801EC0F93
:10170000FD1F6491662341F08CEB93E00E942A0B4D
:10171000892B11F02196F2CFCE01DF91CF911F914D
:101720000F910895682F8CEB93E00C942A0BCF93C4
:10173000DF93EC01888D8823B9F0AA89BB89E889F9
:10174000F9898C9185FD03C0808186FD0DC00FB69F
:1017500007FCF7CF8C9185FFF2CF808185FFEDCF1D
:10176000CE010E94080BE9CFDF91CF91089583301D
:1017700081F028F4813099F08230A9F00895873003
:10178000A9F08830C9F08430B1F4809180008F7D59
:1017900003C0809180008F7780938000089584B586
:1017A0008F7784BD089584B58F7DFBCF8091B00085
:1017B0008F778093B00008958091B0008F7DF9CF2E
:1017C000CF93DF93EDE1F8E08491E9E0F8E0D49184
:1017D000E5EFF7E0C491CC23A1F081110E94B70B93
:1017E000EC2FF0E0EE0FFF1FEB51F84FA591B491F5
:1017F000EC91ED2381E090E009F480E0DF91CF915E
:10180000089580E090E0FACF1F93CF93DF93282FC5
:1018100030E0F901E95EF74F8491F901ED5FF74F90
:10182000D491F901E151F84FC491CC23A9F0162FBE
:1018300081110E94B70BEC2FF0E0EE0FFF1FEE526C
:10184000FA4FA591B4918FB7F894EC91111108C09B
:10185000D095DE23DC938FBFDF91CF911F91089548
:10186000DE2BF8CFCF93DF9390E0FC01ED5FF74FD5
:1018700024918151984FFC0184918823C9F090E014
:10188000880F991FFC01E853FA4FA591B491FC0110
:10189000EE52FA4FC591D49161110DC09FB7F894E3
:1018A0008C91209582238C938881282328839FBF45
:1018B000DF91CF910895623051F49FB7F8943C9135
:1018C000822F809583238C93E8812E2BEFCF8FB7C7
:1018D000F894EC912E2B2C938FBFEACF3FB7F8945E
:1018E0008091A2039091A303A091A403B091A503BA
:1018F00026B5A89B05C02F3F19F00196A11DB11D6B
:101900003FBFBA2FA92F982F8827BC01CD01620FA6
:10191000711D811D911D42E0660F771F881F991F61
:101920004A95D1F708958F929F92AF92BF92CF922E
:10193000DF92EF92FF924B015C010E946E0C6B01F3
:101940007C010E946E0C6C197D098E099F09683E0E
:10195000734081059105A8F321E0821A9108A1083E
:10196000B10888EEC80E83E0D81EE11CF11C81147A
:101970009104A104B10429F7FF90EF90DF90CF907C
:10198000BF90AF909F908F9008952FB7F89460917B
:101990009E0370919F038091A0039091A1032FBF9C
:1019A000089508958F929F92AF92BF92CF92DF9247
:1019B000EF92FF921F93CF93DF93FC014A01AA2479
:1019C000BB24C82DC32ED42EE52EFF241C2DD22FD0
:1019D0008085882361F0889E40011124C92D8C9D4B
:1019E000600111241D2D829FD0011124DB2FA685BB
:1019F000E184F2849385A91322C0CB01880F991F3B
:101A0000680F791F6E0D7F1DA385A60FB72FB11D1F
:101A1000CC93A485A60FB72FB11D1C938585680FA5
:101A2000711DFB01D083DF91CF911F91FF90EF904B
:101A3000DF90CF90BF90AF909F908F900895660FEA
:101A4000771F660F771F6E0D7F1D252F33274427C5
:101A50005527882349F090E0829F7001839FF00C06
:101A6000929FF00C11242F2DA60FB72FB11D2C9390
:101A7000CBCFFF920F931F93CF93DF93EC01FF2403
:101A8000F394F60E28852F1581F109851A852150CA
:101A900041F16F3FE1F430E050E040E06FEF7FEF65
:101AA00080E090E00E94BB2CB901F8014C815D817F
:101AB000CF01801B910B84179507B0F44081469F9E
:101AC000C001479F900D112490833196EFCF8F2D49
:101AD00090E0982F88270197622F70E00E94712C68
:101AE000E4CF70E060E0E1CFF886DF91CF911F9105
:101AF0000F91FF900895CF92DF92EF92FF920F9394
:101B00001F93CF93DF93CDB7DEB729970FB6F89425
:101B1000DEBF0FBECDBF8C01DC0119968D919C916B
:101B2000892B09F473C00E946E0CF801C784D08819
:101B3000E188F2886C157D058E059F0520F4678786
:101B4000708B818B928BF801C784D088E188F288F2
:101B50006C197D098E099F096C32714081059105D0
:101B600010F3F894D80114968D919C9115979A834F
:101B700089831996ED91FC917F01BFEFEB1AFB0A67
:101B800080818987F80190810388F489E02DD8014C
:101B900055968C91992309F448C09081982B988789
:101BA0009081809589238F838F818C8388E08B83BC
:101BB00058856F8149853B812C8189819A81D70124
:101BC000508347FD252F3A952083262F39F0441F57
:101BD00000C000006083000000C0F2CF38E04D91EB
:101BE00060830000019761F7D8015496FC93EE934F
:101BF000539749873B832C839A83898378940E94E7
:101C00006E0CF8016787708B818B928B29960FB6CB
:101C1000F894DEBF0FBECDBFDF91CF911F910F9122
:101C2000FF90EF90DF90CF9008959081982B988748
:101C30009081809589238F838F818E8388E08D8327
:101C400058856F8149853D812E8189819A81D7018F
:101C5000508347FD252F00C000C0208300C000C076
:101C600000C000C000C060830000262F3A9541F0FC
:101C7000441F000000C000C000C000C000C0E8CF8A
:101C800038E04D9100C0608300C0019709F7D8018A
:101C90005496FC93EE93539749873D832E83ACCFA4
:101CA000FC01EF2FFF27E695E695E695E855FA4FFC
:101CB0002491FC0135E0F695E7953A95E1F7EF734D
:101CC000FF27E859FA4F64918F719927FC01E85575
:101CD000FA4FE49170E090E080E0982F872F762F04
:101CE0006627822B6E2B08958F929F92AF92BF92A0
:101CF000CF92DF92EF92FF920F931F93CF93DF93D8
:101D00008C01CB01F80124AD2223F1F080AC91AC21
:101D1000A2ACB3ACF801E58CF68CD0E0C0E0680171
:101D2000FBE1CF0ED11CCE15DF0599F0F801858DB2
:101D3000968DC817D90730F4A5019401BE01C601DC
:101D40000E94D20C2196EFCF0E94500E4B015C01F5
:101D5000E1CFDF91CF911F910F91FF90EF90DF9036
:101D6000CF90BF90AF909F908F9008955F926F92A9
:101D70007F928F929F92AF92BF92CF92DF92EF921B
:101D8000FF920F931F93CF93DF938C01EB017A01A6
:101D9000690177FD31C157FD2FC1DC0118968D9186
:101DA0009C911997681779070CF026C11A968D91A6
:101DB0009C911B97481759070CF01EC156968C91A1
:101DC0005697823009F442C0833009F44FC0813005
:101DD00041F414968D919C910197841B950B7B0186
:101DE000EC01D801D696ED91FC91D797309709F484
:101DF00046C0B701CE010995EC01B12CA12CF80128
:101E000084AD882309F4F2C020AD31AD42AD53ADAD
:101E1000B5016C0F7D1FD8015D968D919C9168175F
:101E2000790708F0E9C0C8014B96DF91CF911F9167
:101E30000F91FF90EF90DF90CF90BF90AF909F9069
:101E40008F907F906F905F900C94D20CF8018481FA
:101E5000958101979C01261B370BE90186819781AB
:101E60000197DC01A41BB50B7D01BBCFF801868176
:101E700097810197861B970BEA017C01B2CFF8018D
:101E800081A8F82DF3707F2ED4969C90D497B12C16
:101E9000A12C992009F46BC0D2966C90A62CB12C81
:101EA000CE01B5010E94852C9B01F80153A8E52DB8
:101EB000F0E0C701BF010E94852CCB01A29EA001CA
:101EC000A39E500DB29E500D1124C41BD50BE69F4E
:101ED000A001E79F500DF69F500D1124E41AF50A5A
:101EE00085FE07C0A92DA150BB0BFD01E21BF30B22
:101EF0009F0184FE07C0D801D5968C918150990B23
:101F0000861B970B86FC11C0492D50E0782F692F56
:101F1000C901272F362F87FC0DC0249FB001259FB4
:101F2000700D349F700D112416C0F80195A8492D2D
:101F300050E0F1CF20FFF1CF682D60956370762ED1
:101F40002F5F3F4F249FB001259F700D349F700D70
:101F5000112480959095680F791F659CC00111240C
:101F6000869F5001879FB00C969FB00C1124B7013B
:101F7000872D827049F0D801D2968C918150990BAF
:101F8000FC01EC1BFD0BEF0170FE07C0D801D396DE
:101F90006C916150770B6E197F0982FC12C0F801B9
:101FA00082A990E0362F272FBE01C32FD22F83FCAA
:101FB0000DC0C89F9001C99F300DD89F300D1124CE
:101FC00011C0D801D3968C9190E0F1CFC0FFF1CF32
:101FD0002196C89F9001C99F300DD89F300D1124C4
:101FE00060957095E901C60FD71F09CFC6010E9401
:101FF000500E9B01AC010CCFDF91CF911F910F913F
:10200000FF90EF90DF90CF90BF90AF909F908F9018
:102010007F906F905F90089520915303260F332790
:10202000331F21323105ECF420917703FC0190E05D
:1020300080E0243069F082E00895A091530321915B
:10204000AC014D5C5C4FA40FB52FB11D2C930196D4
:10205000861798F380915303680F6093530380E0D1
:10206000089581E0089508958FEF9FEF08958FEF11
:102070009FEF089580912C0390E0919581959109AF
:102080000895CF93DF93CB01EA01642F0E940C10D7
:10209000CE01DF91CF910895CF93DF931F92CDB7FB
:1020A000DEB7698361E0CE0101960E940C1081E0E9
:1020B00090E00F90DF91CF9108950895FC01637037
:1020C000668B8481958126813781613039F0633058
:1020D00029F0918780873387228708953187208769
:1020E0009387828708952F923F924F925F926F92CB
:1020F0007F928F929F92AF92BF92CF92DF92EF9298
:10210000FF920F931F93CF93DF93CDB7DEB76A97FC
:102110000FB6F894DEBF0FBECDBF9A8F898F7A833A
:1021200069834A01D22E18870F833701BC2CDC014A
:1021300059962D913C915A972115310509F015C1F9
:1021400018968D919C911997681779070CF0D7C153
:102150001A968D919C91481759070CF0D0C14C2CC0
:10216000512CB6E0CB9E600D711D11247C876B87CE
:10217000161617060CF0C3C1EA2DF0E0FA87E987BE
:1021800093E0EE0FFF1F9A95E1F7F88BEF87CF01F1
:10219000840F951F181619060CF0B1C1A98DBA8DC0
:1021A00058968C91811104C0BFEABD1508F4D394F0
:1021B000A98DBA8DED91FC9111970284F385E02DE4
:1021C000CD010995B5E0DB9EC0011124E981FA81BA
:1021D000FC83EB83312C212C9C0128593F4F388FF5
:1021E0002F8B4A2D50E05E8B4D8BEF89F88DE20DE1
:1021F000F31D44919E828D82D12CC12C69817A81FC
:10220000620D731D7A8B698B842F90E09C8B8B8B76
:10221000E98DFA8DA081B18140FF82C0F1E0BF124B
:102220006FC0AF126DC01C96ED91FC912F81388567
:10223000A4014C0D5D1D69897A89898D9A8D099556
:10224000EB89FC89F595E7954E2F5FEFC51AD50A06
:102250006D817E818D899E89680F791F7E836D8354
:1022600098E0C916D10481F6AFEF2A1A3A0AEB8139
:10227000FC81E40DF51DFC83EB83F5E02F163104A2
:1022800009F0B3CF2F81388526153705B9F0A98D10
:10229000BA8DED91FC91B1E0BB1257C0AB1255C0A5
:1022A00069817A816B5F7F4F0088F189E02D83011E
:1022B00028E030E0A401898D9A8D0995A98DBA8D09
:1022C000ED91FC9111970688F789E02DCD016A9672
:1022D0000FB6F894DEBF0FBECDBFDF91CF911F9137
:1022E0000F91FF90EF90DF90CF90BF90AF909F90B5
:1022F0008F907F906F905F904F903F902F900994B8
:102300001E96ED91FC91EF80F88409851A85920163
:102310004D815E816B817C81898D9A8D099590CFED
:102320002F8138852615370509F48ACF31E0B3129D
:1023300007C0A31205C01C96ED91FC91930178CFC4
:102340001E96ED91FC917301E0CF6B857C8564193D
:1023500075090684F785E02D73010F8518899201B0
:10236000A401898D9A8D0995A9CFF901349694918C
:10237000329745915491D91AB7E0DB9E400D511D1B
:102380001124F901259134913C8B2B8BFA01259076
:102390003490FA013296749031963491398B32969A
:1023A00064903196449041E04C1518F04A1508F0BD
:1023B0007FC0662D062C000C770B7C836B83842DED
:1023C000042C000C990B9E838D83A98DBA8DED9101
:1023D000FC9111970284F385E02DCD010995512CD4
:1023E000D12CC12CEA2DF0E0FA87E9872B2D30E0C3
:1023F0003C872B87A401440D511D47FC5A95588FEB
:102400004F8B69817A81660D711D67FC7A957E8795
:102410006D877989C71608F051CF2C2D30E04D819A
:102420005E81420F531FA985BA854A9FC0014B9F09
:10243000900D5A9F900D1124FC01E80DF91DF88BA9
:10244000EF87852D612C4F89588D420F531F5E8B6E
:102450004D8B671408F050C044244394480E877095
:1024600041F4C1010196EB89FC89E20DF31DD49082
:102470001C01D7FE19C0A98DBA8DED91FC91662D76
:1024800070E0B1E0BB1219C0AB1217C02D853E85BC
:10249000620F731F0484F585E02D2F8138854D89E7
:1024A0005E89898D9A8D0995DD0C6394842DD1CF39
:1024B0001E821D821C821B8288CF4B815C81640F2F
:1024C000751FAB85BC856A9FC0016B9F900D7A9F7D
:1024D000900D112469817A81680F791F0684F78530
:1024E000E02DEF80F88409851A859D014F85588974
:1024F000898D9A8D0995D8CF570CC3948ACF6A9647
:102500000FB6F894DEBF0FBECDBFDF91CF911F9104
:102510000F91FF90EF90DF90CF90BF90AF909F9082
:102520008F907F906F905F904F903F902F90089585
:102530008F929F92AF92CF92EF92FF920F931F9341
:10254000CF93DF93EC01262F898D9A8D009709F0A8
:1025500051C06A30D1F41D861C868D8948E0849F65
:10256000900111248E859F85820F931F9F878E87F0
:1025700081E090E0DF91CF911F910F91FF90EF905C
:10258000CF90AF909F908F9008956D3089F3CC8855
:10259000AD888F898823C1F08C859D8536E0C39EE8
:1025A000800D911D1124488559854817590764F4F9
:1025B0004E855F851D861C8638E0A39EC0011124D0
:1025C000840F951F9F878E87EA88FB880889198961
:1025D0004E855F856C857D85CE010E9473102C89A8
:1025E0008C859D8546E0249F800D911D11249D873B
:1025F0008C87BECF6A3069F41D861C86FC01389634
:10260000E4912D898E859F85E29F800D911D112477
:10261000ADCF6D3009F4ACCFFC0134963491631723
:1026200008F4A6CF3296E491E61708F4A1CFFC0196
:10263000329685909490462F431B342F47E0349F69
:10264000800C911C1124F401329634913196E4915E
:102650003323A9F1EE2399F1CC88F4013596E49166
:10266000AD884F89442301F10E2E000CFF0BE30FC0
:10267000F11DCE9EA001CF9E500D11246C857D854D
:10268000460F571F68857985641775076CF44E856A
:102690005F851D861C86FC013896E491AE9E400D38
:1026A000511D11245F874E87EA88FB8808891989A4
:1026B0004E855F856C857D85CE010E947310F40187
:1026C0003496E4912C898C859D85E29F800D911D27
:1026D00011248DCF6F927F928F929F92AF92BF9273
:1026E000CF92DF92EF92FF920F931F93CF93DF93DE
:1026F000EC016B015A0139014801E881F98102843A
:10270000F385E02D0995E881F9810288F389E02DB0
:1027100087019301A501B601CE010995A501480DD8
:10272000591D41505109E881F9810288F389E02D52
:102730009301B601CE010995E881F9810088F189FC
:10274000E02D9401A501B601CE010995C60CD71C58
:10275000B60161507109E881F9810088F189E02DA5
:102760009401A501CE010995E881F9810688F789D0
:10277000E02DCE01DF91CF911F910F91FF90EF904F
:10278000DF90CF90BF90AF909F908F907F906F9091
:1027900009946F927F928F929F92AF92BF92CF9245
:1027A000DF92EF92FF920F931F93CF93DF935C0121
:1027B000EB016A01490138018701DC01ED91FC91CF
:1027C0006217730719F5641675062CF0962D872D80
:1027D0003A01C92ED82E9601261937092F5F3F4F8F
:1027E000048CF58DE02DA301BE01C5010995DF9193
:1027F000CF911F910F91FF90EF90DF90CF90BF90FE
:10280000AF909F908F907F906F90089546155705D9
:1028100091F42617370724F0892D4B01C22FD82FAA
:102820009E01281939092F5F3F4F068CF78DE02D47
:10283000A601B401DACF0284F385E02D0995D50114
:10284000ED91FC910488F589E02D83019401A601A6
:10285000BE01C5010995D501ED91FC910688F78966
:10286000E02DC501DF91CF911F910F91FF90EF9067
:10287000DF90CF90BF90AF909F908F907F906F90A0
:102880000994EF92FF920F931F93DC011A960D911A
:102890001C911B9718962D913C911997ED91FC91E5
:1028A00000A0F1A1E02D7B0150E040E070E060E08D
:1028B00009951F910F91FF90EF9008954F925F92AD
:1028C0006F927F928F929F92AF92BF92CF92DF9240
:1028D000EF92FF920F931F93CF93DF936C012B0125
:1028E0005A0139014801DC01ED91FC910284F38524
:1028F000E02D0995E201640C751CD601ED91FC9167
:10290000C615D7055CF40088F189E02D8701940194
:10291000A501BE01C60109952196EFCF0688F7896A
:10292000E02DC601DF91CF911F910F91FF90EF90A5
:10293000DF90CF90BF90AF909F908F907F906F90DF
:102940005F904F9009948F929F92AF92BF92CF92D7
:10295000DF92EF92FF920F931F93CF93DF93EC01DF
:102960005B014A016901E881F9810284F385E02D68
:10297000099595012C0D3D1D21503109E881F98102
:102980000488F589E02D78018401A401B501CE0108
:102990000995E881F9810688F789E02DCE01DF915C
:1029A000CF911F910F91FF90EF90DF90CF90BF904C
:1029B000AF909F908F9009948F929F92AF92BF9209
:1029C000CF92DF92EF92FF920F931F93CF93DF93FB
:1029D000EC015B014A0169017801E881F981028417
:1029E000F385E02D0995C80CD91C86010150110909
:1029F000E881F9810488F589E02D9501A401B501EC
:102A0000CE010995E881F9810688F789E02DCE018C
:102A1000DF91CF911F910F91FF90EF90DF90CF90BA
:102A2000BF90AF909F908F900994EF92FF920F9379
:102A30001F93DC01ED91FC9100A0F1A1E02D09951F
:102A40001F910F91FF90EF9008950F931F93DC015A
:102A5000ED91FC91068CF78DE02D09951F910F915A
:102A600008950F931F93DC01ED91FC91048CF58D7B
:102A7000E02D09951F910F910895DC01ED91FC91D6
:102A80000084F185E02D09942F923F924F925F923E
:102A90006F927F928F929F92AF92BF92CF92DF926E
:102AA000EF92FF920F931F93CF93DF9300D000D04C
:102AB00000D0CDB7DEB73C016A013E832D83FC8296
:102AC000EB825801A41AB50AB7FE03C0B194A194D1
:102AD000B1088D809E80861A970A97FE03C0919454
:102AE000819491088A149B045CF0902F812F0D81B2
:102AF0001E819D838E839C2D8D2D6B01692F782FD8
:102B00000C151D055CF09D818E817E836D83692F80
:102B1000782F902F812F8601C92ED82E1601201ACA
:102B2000310A2B012D813E81421A530A57FE03C000
:102B3000519441945108710137FE03C03FEFE31AED
:102B4000F30AF594E7948D819E81861797075CF5CB
:102B5000A1E0B0E0BA83A983C016D1064CF1D3013D
:102B6000ED91FC910484F585E02D2B813C81A80139
:102B70006D817E818A149B041CF04D815E81B801B9
:102B8000C3010995E418F508F7FE0AC02D813E81BE
:102B900089819A81280F391F3E832D83E20CF31C13
:102BA0000F5F1F4FD9CF2FEF3FEF3A832983D4CF49
:102BB00026960FB6F894DEBF0FBECDBFDF91CF9142
:102BC0001F910F91FF90EF90DF90CF90BF90AF904B
:102BD0009F908F907F906F905F904F903F902F903D
:102BE000089590E080E00895CF92DF92EF92FF92F7
:102BF00080916E04882309F45EC0809172059091E3
:102C00007305892BB9F00E946E0CC0906E05D090B0
:102C10006F05E0907005F09071056C197D098E09C3
:102C20009F09693873418105910520F01092730561
:102C3000109272050E946E0CC0906E05D0906F05C8
:102C4000E0907005F09071056C197D098E099F095F
:102C5000683873418105910520F50E946E0CC09083
:102C60006E05D0906F05E0907005F0907105209191
:102C7000720530917305A9014F5F5F4F5093730543
:102C8000409372056C197D098E099F0944E0969561
:102C90008795779567954A95D1F7275A3B4FF90164
:102CA000668B0E946E0C60936E0570936F05809327
:102CB00070059093710580917205909173058F3F17
:102CC000910559F480916E0480917205909173057D
:102CD00001979093730580937205FF90EF90DF90BA
:102CE000CF90089580916504882379F08091B50391
:102CF0009091B6036091AC037091AD03DC01ED914E
:102D0000FC9102A0F3A1E02D099480916304882333
:102D100049F08091B5039091B6036091A80370913A
:102D2000A903ECCF80915F04813041F080915E0473
:102D3000882321F080918305811109C08091B5031A
:102D40009091B6036091A6037091A703D7CF81300D
:102D500069F2823049F48091B5039091B603609195
:102D6000AA037091AB03CACF833099F20895FC0196
:102D700001900020E9F73197AF01481B590BBC01C6
:102D80008CEB93E00C948A0A8BE791E00C94B716D5
:102D9000CF93DF930E94770BEC010E94C4168C0F37
:102DA0009D1FDF91CF9108958DEB90E10E94C81691
:102DB000E9E5F4E0108613821482158211861286EA
:102DC00013861486158616861786108A81E08683F8
:102DD000858B0E946E0C60936E0570936F058093D7
:102DE0007005909371050895CF93DF93BC018CEB30
:102DF00093E00E947C0AEC010E94C4168C0F9D1F78
:102E0000DF91CF9108958F929F92AF92BF920F93CF
:102E10001F93CF93DF93CDB7DEB7A1970FB6F8948A
:102E2000DEBF0FBECDBF19A2423008F44AE08E01CA
:102E30000F5D1F4F842E912CB12CA12CA501940164
:102E40000E94992CE62FB901CA01EA30F4F4E05D42
:102E5000D801EE938D01232B242B252B79F790E0BD
:102E600080E0109719F0CD010E94B716A1960FB619
:102E7000F894DEBF0FBECDBFDF91CF911F910F91B0
:102E8000BF90AF909F908F900895E95CE1CFBC0117
:102E900090E080E04AE00C940317CF93DF930E9408
:102EA0004717EC010E94C4168C0F9D1FDF91CF9134
:102EB0000895CF92DF92EF92FF92CF93DF936C0150
:102EC000990FEE08FF08F7FE17C08DE20E94920BE3
:102ED000EC0166277727CB016C197D098E099F09C4
:102EE0004AE00E9403178C0F9D1FDF91CF91FF9046
:102EF000EF90DF90CF9008954AE0C701B601DF91CF
:102F0000CF91FF90EF90DF90CF900C940317CF9369
:102F1000DF930E945917EC010E94C4168C0F9D1F6D
:102F2000DF91CF910895682F70E090E080E04AE053
:102F30000C940317CF93DF930E949317EC010E9428
:102F4000C4168C0F9D1FDF91CF910895CF93DF930F
:102F5000EC0188819981009711F00E947C2D1982E3
:102F600018821D821C821B821A82DF91CF910895E4
:102F7000FC0180819181009711F00C947C2D0895C3
:102F8000CF93DF93EC018DE391E0998388838CA14B
:102F90009DA10E947C2D89A19AA197FD05C060E0AA
:102FA000DF91CF910C94320CDF91CF910895CF93A4
:102FB000DF93EC010E94C017CE01DF91CF910C94FA
:102FC0007C2D0E94C22E0F931F93CF93DF93EC01B1
:102FD00088819981009759F02A813B81261737070C
:102FE00030F081E0DF91CF911F910F9108958B0117
:102FF0006F5F7F4F0E94052E009759F09983888359
:103000001B830A832C813D81232B59F7FC011082FD
:10301000E8CF80E0E7CFEF92FF920F931F93CF931B
:10302000DF936115710541F480E0DF91CF911F912D
:103030000F91FF90EF90089541155105B1F07B017C
:10304000EC010C811D81040F151FB8010E94E317CC
:10305000882351F3288139818C819D81B701820FAA
:10306000931F0E94D02E1D830C8381E0DECFCF936F
:10307000DF93EC01FB0101900020E9F73197AF01EC
:10308000461B570B0E940B18811103C0CE010E94F2
:10309000A617CE01DF91CF910895CF93DF93EC0176
:1030A000FB0144815581608171810E940B1881115F
:1030B00003C0CE010E94A617CE01DF91CF910895E3
:1030C000EF92FF920F931F93CF93DF93EC017B015D
:1030D0008A01BA010E94E31781110BC0CE010E9440
:1030E000A617CE01DF91CF911F910F91FF90EF9026
:1030F00008951D830C83B701888199810E94D02E89
:10310000F0CFFB0101900020E9F73197AF01461B9A
:10311000570B0C9460180F931F93CF93DF93CDB789
:10312000DEB729970FB6F894DEBF0FBECDBF8C0176
:10313000862FF80111821082138212821582148266
:103140004AE0BE016F5F7F4F90E00E94EE2BBE0110
:103150006F5F7F4FC8010E94811829960FB6F894BF
:10316000DEBF0FBECDBFDF91CF911F910F910895AC
:10317000CF93DF93EC01FB018617970749F060813D
:1031800071816115710541F0448155810E9460187B
:10319000CE01DF91CF9108950E94A617F9CFFC01CF
:1031A0001182108213821282158214820C94B81834
:1031B000FC01118210821382128215821482FB019B
:1031C00001900020E9F73197AF01461B570B0C9493
:1031D0006018EF92FF920F931F93CF93DF93EC0150
:1031E0008B01198218821B821A821D821C82CB01DC
:1031F0000E94DA2B7C01BC01CE010E94E3178111F1
:1032000009C0CE01DF91CF911F910F91FF90EF90F8
:103210000C94A617FD82EC82B80188819981DF9118
:10322000CF911F910F91FF90EF900C94D32BCF93E0
:10323000DF93EC018091830569EB70E1882371F0E5
:1032400064EB70E1813051F06DEA70E1823031F071
:1032500067EA70E1833011F06FE970E1CE010E94FE
:10326000E918CE01DF91CF9108952F923F924F92AE
:103270005F926F927F928F929F92AF92BF92CF9206
:10328000DF92EF92FF920F931F93CF93DF93CDB70F
:10329000DEB72C970FB6F894DEBF0FBECDBF80917E
:1032A000590481112EC084E890E10E94770B81E0DF
:1032B00090E00E9459178EE20E94920B83E090E00A
:1032C0000E94871786E690E10E94C8168AE490E182
:1032D0000E94770B80E190E00E94591787E390E10C
:1032E0000E94C8168DE190E10E94770B8FEF90E06D
:1032F0000E94591786E190E10E94C81681E08093F0
:103300005904C0906E05D0906F05E0907005F09064
:1033100071050E946E0C6C157D058E059F0550F49D
:103320000E946E0C60936E0570936F05809370051C
:103330009093710580917205909173054C9708F4F4
:1033400001C30E946E0CAB01BC0180916E0590918F
:103350006F05A0917005B091710588519C4FAF4FDA
:10336000BF4F84179507A607B70708F0EBC2109266
:103370006E048CEE9BE00E94C8168CED9FE00E94CC
:10338000C816109275051092740510927705109268
:103390007605109279051092780510927B051092AF
:1033A0007A0510927D0510927C0510927F0510928F
:1033B0007E05109281051092800510926104109292
:1033C0005C0410925D0410926204109260041092EA
:1033D0005F041F82188619861A8680916F0420E187
:1033E000829FC00111248D3F984054F080916F045A
:1033F00040E1849FC0011124843C99400CF4CEC06C
:1034000088EC9FE00E94C81688E99FE00E94C816D9
:103410008FE79FE00E94C81689E59FE00E94C816CA
:1034200080E49FE00E94C8168FE19FE00E94C816CA
:103430008CE390E00E9459178AE09FE00E94C81632
:103440008EE190E00E9459178FEE9EE00E94C81610
:1034500087ED9EE00E94C816E0917205F091730519
:10346000E85AFB4F9689E0917205F091730583E26B
:10347000891BE75AFB4F868B312C10E000E07FE17F
:10348000A72EB12CE8E08E2E912C412C512C32012C
:1034900043942091720530917305832D90E0215063
:1034A00031098217930708F06DC3FC01E65AFB4F00
:1034B000C68850E1C59E60011124855A9B4FFC01CE
:1034C000E688F0E1EF9E70011124C601805E91094B
:1034D00081369105E8F4C701805491408338910505
:1034E000B8F484E29DE00E94C8163A94832D90E0DF
:1034F000FC01E65AFB4FC68820E1C29E6001112400
:10350000855A9B4FFC01E688F0E1EF9E7001112483
:10351000C6010E9447178FE20E94920BC7010E94CA
:10352000471781E29DE00E94770B96012E0D3F1D0B
:103530003C872B87C9010E94471785E19DE00E94C7
:10354000770BC601805491408338910508F01DC265
:10355000C701805791098135910508F016C2809105
:103560007805909179050196909379058093780577
:10357000002349F0809180059091810501969093F8
:103580008105809380058BE09DE00E94770B10E021
:1035900001E00E94C416339433947BCF81EC9EE00B
:1035A0000E94C8168CE89EE00E94C8168AE79EE03A
:1035B0000E94C81681E69EE00E94C81687E49EE03D
:1035C0000E94C81685E29EE00E94C81680E19EE037
:1035D0000E94770B80916F04E0E18E9FC00111245F
:1035E0000E9487170091720510917305112765E2FB
:1035F000F62E0E31E8F4F801E75AFB4FF68A88EF11
:103600009DE00E94C8168091720590917305019605
:10361000909373058093720580917C0590917D0550
:10362000019690937D0580937C050F5F1F4FE1CF3E
:1036300022242394312C3FE1832E912C48E0A42EA8
:10364000B12C412C512C32014394209172053091C0
:103650007305822D90E0215031098217930708F0FD
:10366000D1C0FC01E75AFB4FE688F0E1EF9E700104
:103670001124865A9B4FFC010689F0E10F9F8001BF
:103680001124C7010E9447178FE20E94920BC801C4
:103690000E94471785EF9DE00E94770B6701C00EDF
:1036A000D11EC6010E94471789EE9DE00E94770B4C
:1036B0002DE0E21A22E0F20A37E9E316F10408F0FD
:1036C0006DC0C8018D50924087399105A8F5809151
:1036D0007405909175050196909375058093740516
:1036E000E32DE695E695E69547E050E04C0F5D1F2B
:1036F0004E0F511DFA01C40183199109B5010E94B1
:10370000852CA301920104C0220F331F441F551FB3
:103710008A95D2F7C901809590818923808333945B
:103720008EE791E00E94B716832D0E9493170E94A6
:10373000C4162394239489CF0556144007391105E4
:1037400068F58091760590917705019690937705BD
:1037500080937605E32DE695E695E69547E050E003
:103760004C0F5D1F4E0F511DFA01C40183199109C1
:10377000B5010E94852CA301920104C0220F331FC2
:10378000441F551F8A95D2F7C9012081822B80835F
:10379000339480EE9DE00E94770BC6CF3CE4C31AC1
:1037A00034E0D30A49ECC416D104F0F480917405D6
:1037B000909175050196909375058093740580919D
:1037C0007C0590917D05019690937D0580937C0505
:1037D000339487ED9DE00E94770B832D0E94931711
:1037E0008CE40E94920BA3CF80917A0590917B0587
:1037F000019690937B0580937A058FEC9DE00E9463
:10380000770B95CF809172059091730501960E9478
:1038100047178FE20E94920B8FEF90E00E9459179A
:1038200088EB9DE00E94C81684EB9DE00E94C816BC
:1038300083EA9DE00E94770B809174059091750555
:103840000E94471780E99DE00E94770B80917605E2
:10385000909177050E9447178FE79DE00E94770BB4
:1038600080917C0590917D050E944D178EE69DE02C
:103870000E94770B80917A0590917B050E944D17ED
:1038800080917405909175052091760530917705AA
:10389000820F931F0E9708F470C08F818F778093EB
:1038A00082058885982F929596959695937090931A
:1038B000830590E095958795959587958F70809372
:1038C000840581E08093610410925D04109260048D
:1038D00080935E0410926D0481E69DE00E94C816FC
:1038E00085E59DE00E94770B809182050E949A17E2
:1038F00089E49DE00E94770B809183050E949317D5
:1039000080E20E94920BCE0101960E941719CE010F
:1039100001960E94F416CE0101960E94B8178DE31D
:103920009DE00E94770B809184050E94931780E2AE
:103930000E94920B0E94BA080E948717109273058A
:1039400010927205809161042C960FB6F894DEBF38
:103950000FBECDBFDF91CF911F910F91FF90EF90E0
:10396000DF90CF90BF90AF909F908F907F906F909F
:103970005F904F903F902F90089581E08093610475
:1039800080935E0480935F04D9CFC601805E910965
:103990008136910508F065C0C701805E91098136C6
:1039A000910508F05EC080917405909175050196AF
:1039B0009093750580937405002309F40CC3E12FDF
:1039C000E695E695E69547E050E04C0F5D1F4E0FFB
:1039D000511DFA01C501811B9109B4010E94852C7A
:1039E000A301920104C0220F331F441F551F8A9563
:1039F000D2F7C90180959081892380831F5F8EE76C
:103A000091E00E94B716812F0E949317103209F09F
:103A1000C0CD19850885FF806F2D8FEF0E94990812
:103A2000602F0E949908612F0E9499089A85981327
:103A30009BC089ED9CE00E94770B80917E05909160
:103A40007F05019690937F0580937E05019731F461
:103A5000F0928205009383051093840510E000E046
:103A600098CD30E7C31AD10841E5C416D104C0F59A
:103A700050E4E51A51E0F50A83E8E816F10480F510
:103A800080917605909177050196909377058093C4
:103A90007605002309F4A3C2E12FE695E695E695A5
:103AA00027E030E02C0F3D1F2E0F311DF901C5011D
:103AB000811B9109B4010E94852CA301920104C0CD
:103AC000220F331F441F551F8A95D2F7C901208149
:103AD000822B80831F5F82E09DE00E94770B93CF53
:103AE0008B859C85805F91408535910578F5809127
:103AF00074059091750501969093750580937405F2
:103B0000002309F46EC2E12FE695E695E69547E0BD
:103B100050E04C0F5D1F4E0F511DFA01C501811B76
:103B20009109B4010E94852CA301920104C0220FC7
:103B3000331F441F551F8A95D2F7C9018095908184
:103B4000892380831F5F89EF9CE0C7CF80917A052E
:103B500090917B05019690937B0580937A0581EF88
:103B60009CE00E94770B52CF8FEB9CE00E94770B7A
:103B700080918005909181050196909381058093B5
:103B800080056CCF809172059091730501960E941B
:103B900047178FE20E94920B8FEF90E00E94591717
:103BA00088EA9CE00E94C81684EA9CE00E94C8163D
:103BB00083E99CE00E94770B8091740590917505D4
:103BC0000E94471780E89CE00E94770B8091760561
:103BD000909177050E9447178BE69CE00E94770B37
:103BE00080917805909179050E9447178AE59CE0BD
:103BF0000E94770B80917A0590917B050E944D176A
:103C000087E49CE00E94770B80917E0590917F0570
:103C10000E9447178FE29CE00E94770B80918005FD
:103C2000909181050E944D1780917E0590917F05AE
:103C3000892B09F488C101E00093610400935C04BE
:103C400010925D0410925E04F0908305109182053D
:103C500010926C0410926D0410926504109262042C
:103C60001092630410926404109266041092670428
:103C7000109268041092690410926A0410926B0406
:103C8000812F807F1F70811110C08AEA9BE00E9403
:103C9000C81610926C041111A1C081E79AE00E942D
:103CA000C81681E080936D04EAC0803139F482EA5D
:103CB0009BE00E94C81600936C04EDCF803241F463
:103CC0008AE99BE00E94C81682E080936C04E3CFEF
:103CD000803331F482E99BE00E94C81683E0F5CF7F
:103CE000803431F48AE89BE00E94C81684E0EDCF6E
:103CF000803531F482E89BE00E94C81685E0E5CF6C
:103D0000803631F48AE79BE00E94C81686E0DDCF5A
:103D1000803731F482E79BE00E94C81687E0D5CF58
:103D2000803831F48FE59BE00E94C81688E0CDCF43
:103D3000803931F48CE49BE00E94C81689E0C5CF3D
:103D4000803A31F483E49BE00E94C8168AE0BDCF3C
:103D5000803B31F48AE39BE00E94C8168BE0B5CF2C
:103D6000803C31F48DE19BE00E94C8168CE0ADCF21
:103D7000803D31F484E19BE00E94C8168DE0A5CF20
:103D8000803E31F487EF9AE00E94C8168EE09DCF06
:103D9000803FF9F488ED9AE00E94C8168FE0809386
:103DA0006C0401E0009369043CE2F31207C08DEB60
:103DB0009AE00E94C81600936B046DCF4BE2F41298
:103DC0006ACF82EB9AE00E94C81681E080936A0471
:103DD00062CF84EA9AE00E94C8165DCF113031F4B8
:103DE0008FE39AE00E94C81682E05CCF123031F473
:103DF00082E19AE00E94C81683E054CF133031F478
:103E00008AEF99E00E94C81684E04CCF143031F458
:103E10008DEB99E00E94C81685E044CF153031F44F
:103E200084EB99E00E94C81686E03CCF163031F44E
:103E30008BEA99E00E94C81687E034CF173031F43E
:103E400082EA99E00E94C81688E02CCF183031F43D
:103E500089E999E00E94C81689E024CF193031F42D
:103E60008FE899E00E94C8168AE01CCF1A3009F04A
:103E700044C08AE099E00E94C81610926D0483E85D
:103E800098E0F4FE05C081E0809363048EE898E03A
:103E90000E94C81680E798E0F3FE05C081E0809399
:103EA00064048BE798E00E94C81683E698E0F2FE6F
:103EB00005C081E0809365048BE698E00E94C816F7
:103EC0008F2D837039F081E08093660487E598E058
:103ED0000E94C816F1FE07C081E0809367048BE45E
:103EE00098E00E94C816F0FE29CD81E08093680416
:103EF00080E498E00E94C81621CD1B3031F48FEE8B
:103F000098E00E94C81689E1CDCE1C3031F484EDD2
:103F100098E00E94C81682E3C5CE1D3031F489EBCB
:103F200098E00E94C8168BE4BDCE1E3031F48DE9B6
:103F300098E00E94C81684E6B5CE86E998E00E9413
:103F4000C81685E6AFCE80917605909177052091D1
:103F5000740530917505009789F42D33310570F0A3
:103F600087E29CE00E94C81681E080936D048093F4
:103F7000610480935D0410925E04E0CC820F931F75
:103F80008D33910570F08BE19CE00E94C81681E0B2
:103F900080936D048093610480935D04809360043A
:103FA000EACF4F9760F081E19CE00E94C816109222
:103FB0006D0481E08093610480936204DCCF82E031
:103FC0009CE00E94C81610926D0481E08093610409
:103FD00080935F04D0CF80E30E94920B17CD81E3E2
:103FE000FBCF8CE4F9CFAF92BF92CF92DF92EF92EA
:103FF000FF920F931F93CF93DF93CDB7DEB72E972A
:104000000FB6F894DEBF0FBECDBF8C016DE771E037
:104010000E94D8188091620467E871E081110CC099
:1040200080915D04882361F08091600461E971E012
:10403000811102C068EB71E0C8010E94811821C0A3
:1040400080915C04882309F4F2C060916C046F30A5
:1040500089F565EC71E0C8010E94811880916B04BC
:104060004CE050E064ED71E0811108C080916A0479
:10407000882339F04AE050E061EE71E0C8010E9407
:104080000B188BE298E00E94770BC8010E94F4168F
:10409000C8012E960FB6F894DEBF0FBECDBFDF91DC
:1040A000CF911F910F91FF90EF90DF90CF90BF9035
:1040B000AF9008956623E9F0CE0101960E948B1817
:1040C0006CEE71E0CE0109960E94D818BE016F5FB8
:1040D0007F4FCE0109960E944D18BC01C8010E9475
:1040E000B818CE0109960E94B817CE0101960E9419
:1040F000B81760916D046B3008F069C0CE0101966D
:104100000E948B18F80180819181009709F44DC0BD
:1041100069817A816115710509F445C04281538135
:104120002D813E8142175307F0F10E94D02E8D81E0
:104130009E81F801958384831E821D82CE010196A3
:104140000E94B81780916504882309F45DC0B80106
:10415000CE0101960E94CF186DE372E0CE01019668
:104160000E943718BC01C8010E94B818CE01019600
:104170000E94B81780916404882309F482CFB801A3
:10418000CE0101960E94CF186CE472E0CE01019638
:104190000E943718BC01C8010E94B818CE010196D0
:1041A0000E94B8176ECF0E947C2D89819A81F801F8
:1041B000918380838B819C81938382838D819E8177
:1041C000958384831A8219821C821B82B5CF6B303F
:1041D00031F463EF71E0C8010E948118B3CF6C30F5
:1041E00019F461E072E0F7CF6D3019F46FE072E01E
:1041F000F2CF6E3019F46DE172E0EDCF6F3009F05F
:10420000A1CF6CE272E0E7CF80916304B80188230C
:1042100039F0CE0101960E94CF1863E472E09ECF80
:10422000CE0101960E94CF1860EB71E097CF80918C
:104230005E046BE672E0882309F4FECECE0101969F
:104240007C010E9417196E0199E0C90ED11CB801BA
:10425000C6010E94CF18B701C6010E944D18BC01CB
:10426000C8010E94B818C6010E94B817C7010E9471
:10427000B817B801C7010E94CF1866E572E0C70100
:104280000E943718BC01C8010E94B818C7010E94DB
:10429000B8170E94BA085C01B801C6010E94CF1885
:1042A0004AE0B701C5010E94E32BF701019000200D
:1042B000E9F73197AF014E195F09B701C6010E94B6
:1042C0000B18811103C0C6010E94A617B601C801D0
:1042D0000E94B818C6010E94B817B801C7010E9411
:1042E000CF186EE572E0C7010E943718BC01C80103
:1042F0000E94B818C7010E94B817B0908205B80193
:10430000C7010E94CF184AE0B6018B2D90E00E94B1
:10431000E32BF60101900020E9F73197AF014C192A
:104320005D09B601C7010E940B18811103C0C701C6
:104330000E94A617B701C8010E94B818C70130CF64
:104340001F93CF93DF9385ED8093BC0080912F0363
:1043500090913003A0913103B09132030796A11DD3
:10436000B11D23E0B695A795979587952A95D1F726
:104370002091BC0024FD03C01092770352C04091ED
:104380002F03509130036091310370913203452B1C
:10439000462B472B69F30097A105B10541F02AE2AE
:1043A0002A95F1F700C00197A109B109E1CF8091E9
:1043B0002E03C1E0C0932D03882399F1D091B8005A
:1043C0001091BA008091BC008A7B8093BC0060E0B1
:1043D00082E10E94040C60E083E10E94040C1092D0
:1043E0007703C09379031092780361E082E10E9421
:1043F000040C61E083E10E94040C8091B9008E7F7F
:104400008093B9008091B9008D7F8093B90088E4D2
:104410008093B80085E48093BC001093BA00D093D9
:10442000B800DF91CF911F9108951F93CF93DF9331
:10443000EC01162F0E94182C181739F0612FCE01AD
:10444000DF91CF911F910C94202CDF91CF911F9180
:1044500008951F920F920FB60F9211242F933F933E
:104460004F935F936F937F938F939F93AF93BF937C
:10447000EF93FF938CEB93E00E94080BFF91EF9179
:10448000BF91AF919F918F917F916F915F914F916C
:104490003F912F910F900FBE0F901F9018951F9274
:1044A0000F920FB60F9211242F938F939F93EF9338
:1044B000FF93E091CC03F091CD038081E091D20392
:1044C000F091D30382FD1BC090818091D5038F5F53
:1044D0008F732091D603821741F0E091D503F0E06D
:1044E000E454FC4F958F8093D503FF91EF919F91FA
:1044F0008F912F910F900FBE0F901F901895808174
:10450000F4CF1F920F920FB60F9211242F933F9367
:104510008F939F93AF93BF9380919E0390919F033E
:10452000A091A003B091A10330919D0323E0230F3C
:104530002D3758F50196A11DB11D20939D03809341
:104540009E0390939F03A093A003B093A103809137
:10455000A2039091A303A091A403B091A503019697
:10456000A11DB11D8093A2039093A303A093A40364
:10457000B093A503BF91AF919F918F913F912F91E0
:104580000F900FBE0F901F90189526E8230F0296EC
:10459000A11DB11DD2CF1F920F920FB60F92112401
:1045A0002F933F934F935F936F937F938F939F933B
:1045B000AF93BF93EF93FF93E0910201F09103015A
:1045C0000995FF91EF91BF91AF919F918F917F914D
:1045D0006F915F914F913F912F910F900FBE0F9070
:1045E0001F9018951F920F920FB60F9211242F93C0
:1045F0003F934F935F936F937F938F939F93AF936B
:10460000BF93EF93FF93E0910001F09101010995B1
:10461000FF91EF91BF91AF919F918F917F916F919A
:104620005F914F913F912F910F900FBE0F901F9070
:1046300018951F920F920FB60F9211242F933F934C
:104640004F935F936F937F938F939F93AF93BF939A
:10465000EF93FF938091B900887F803609F44AC0B8
:10466000F0F5883209F4A5C018F5803109F499C035
:10467000B8F4882309F4F5C0883009F492C0FF919A
:10468000EF91BF91AF919F918F917F916F915F91CA
:104690004F913F912F910F900FBE0F901F90189543
:1046A000883109F486C0803251F78093760314C0B4
:1046B000803409F49BC040F48033B9F38833F9F6B1
:1046C0008093760385ECAEC0803509F483C08835CD
:1046D00009F494C0883499F60E94A021D0CF88397B
:1046E00009F48AC038F5883729F050F4883611F07B
:1046F000803729F683E0809377031092750355C0C5
:10470000883809F479C0803919F0803809F0B7CFBA
:1047100080917503803208F06FC0E091750381E0ED
:104720008E0F809375038091BB00F0E0EB5AFC4F35
:1047300080833BC0803B39F0D0F4803A09F477C0E5
:10474000883A09F09CCF84E0809377031092540359
:1047500010925303F0E0E0E009958091530381113A
:104760000FC081E0809353031092330309C0803C53
:1047700009F4A8CF883C09F4A5CF883B09F07FCF86
:10478000E091540381E08E0F80935403F0E0ED5CE0
:10479000FC4F80818093BB00909154038091530320
:1047A00029C080919C038093BB0085EC8093BC0062
:1047B00066CF90919B0380919A03981758F5E091EA
:1047C0009B0381E08E0F80939B03F0E0E658FC4F43
:1047D0008081E9CFE0919B0381E08E0F80939B0362
:1047E0008091BB00F0E0E658FC4F808390919B03E2
:1047F00080919A039817C8F285E8D8CFE0919B037F
:1048000081E08E0F80939B038091BB00F0E0E6581F
:10481000FC4F80838091790381115ECF81E080938A
:10482000780384EA8093BC001092770328CF85EC4C
:104830008093BC001092770380917503803230F42E
:10484000E0917503F0E0EB5AFC4F10826091750324
:1048500070E085E593E0F0E0E0E0099510927503E3
:104860000ECF1092760338CFECEBF3E01382128276
:1048700088EE93E0A0E0B0E084839583A683B783BD
:104880008DE691E09183808385EC90E09587848725
:1048900084EC90E09787868780EC90E0918B808B0A
:1048A00081EC90E0938B828B82EC90E0958B848BF3
:1048B00086EC90E0978B868B118E128E138E148E61
:1048C00080910601982F92959F7090939405809304
:1048D00093056DE771E08DE895E00E94D8180E947D
:1048E000C50C6093890570938A0580938B0590931E
:1048F0008C0584E893E0A0E0B0E080938505909378
:104900008605A0938705B0938805E9E5F4E0108259
:1049100080E6818383E0828313821482158216826B
:1049200017821086118612861386148615861686BF
:104930001786108A118A128A138A148A158A10928D
:104940006E0510926F05109270051092710510920D
:1049500073051092720510927505109274051092ED
:1049600077051092760510927905109278051092CD
:104970007B0510927A0510927D0510927C051092AD
:104980007F0510927E05109281051092800510928D
:104990008205109283051092840561E00C94320C1C
:1049A000CF93DF93CDB7DEB760970FB6F894DEBF35
:1049B0000FBECDBF789484B5826084BD84B581601C
:1049C00084BD85B5826085BD85B5816085BD8091DA
:1049D0006E00816080936E00109281008091810052
:1049E000826080938100809181008160809381004A
:1049F000809180008160809380008091B10084600C
:104A00008093B1008091B00081608093B00080916C
:104A10007A00846080937A0080917A00826080932B
:104A20007A0080917A00816080937A0080917A0088
:104A3000806880937A001092C100E091CC03F091DD
:104A4000CD0312E01083E091C803F091C9031082F6
:104A5000E091CA03F091CB0380E180831092D403EC
:104A6000E091D003F091D10386E08083E091CE0302
:104A7000F091CF03808180618083E091CE03F0913B
:104A8000CF03808188608083E091CE03F091CF03D3
:104A9000808180688083E091CE03F091CF03808194
:104AA0008F7D808364E670E080E090E00E94930C4C
:104AB00080E996E00E94C81683E792E00E94B7164C
:104AC0000E94C41685E896E00E94770B83EE92E080
:104AD0000E94B71680E20E94920B8CEE92E00E9438
:104AE000B7160E94C41662E086E00E94320C8BE684
:104AF00096E00E94770B86E090E00E94871786E59B
:104B000096E00E94770B82E30E94920B0E94C416EB
:104B10008DE390E00E94E02C7C01DC0113961C9256
:104B20001E92129781E191E011969C938E9388E0FA
:104B300090E015969C938E93149717969C938E9362
:104B4000169719969C938E9318971B969C938E9309
:104B50001A9756961C9256971D961C921E921C9759
:104B60001F961C921E921E9781E055968C93559726
:104B700054968C9354972FEF3FEF53963C932E937C
:104B8000529751963C932E93509757968C935797E4
:104B900058961C9258975A961C921E9259975C965A
:104BA0001C925C9793961C92F70112A613A614A66A
:104BB00015A681A786A317A210A7838F80EC90E08B
:104BC00090A3878F0E94E02CD70195969C938E939B
:104BD0009497009709F48FC120ECFC0111922A955B
:104BE000E9F780E490E05E969C938E935D9783E076
:104BF00090E0F70192A381A3848D882341F061E0C6
:104C000083E00E94320C60E083E00E94040CE2EF3B
:104C1000F7E0E491F0E0EE0FFF1FEE52FA4F8591BE
:104C20009491D7019F969C938E939E97E6E0F8E02F
:104C3000E491D096EC93D0978DE391E011969C93FC
:104C40008E938EE0D1968C93D19788E0D2968C93F8
:104C5000D297D3968C93D397D4961C92D497D5960B
:104C60001C92D597D7961C921E92D697DC961C92D2
:104C7000F092B603E092B50380E098EF9093A7031B
:104C80008093A60380EE97E09093A9038093A803F6
:104C900080EE9FEF9093AB038093AA038FE190E0A7
:104CA0009093AD038093AC038FE198EF9093AF03A3
:104CB0008093AE038FEF97E09093B1038093B0039E
:104CC0008FEF9FEF9093B3038093B20384E090E063
:104CD0000E94182C182F809306016AE00E94652C10
:104CE00080930401612F70E080E094E00E94852CA5
:104CF0006093940582E496E00E94770B812F0E94D6
:104D00009A1786E090E00E94182C8111FDC0109245
:104D1000050182E396E00E94770B809105018823CC
:104D200009F4F6C086E296E00E94C8160091B50329
:104D30001091B6036801BBE1CB0ED11CF80181A133
:104D400092A197FD09C061E00E94320C60E0D80199
:104D500091968C910E94040CFF24F394F801F48E38
:104D600060910601C6010E94390D88EF95E00E940E
:104D7000770B82E090E00E94871760E082E00E945B
:104D8000320C84EF95E190930101809300018091B2
:104D900069008C7F816080936900E89A8CED95E0D2
:104DA0000E94C8161092610410925C0410925D0477
:104DB00010925E04109262041092630410926404D4
:104DC00010926504109266041092670410926804B1
:104DD00010926904F0925F04F0926E040E946E0CCF
:104DE00060936E0570936F058093700590937105C5
:104DF000DD24D394CC24C39440E0642E40E0742E90
:104E000083E0582E97E0492E2AE0222E30EC332EF4
:104E10001091BB031111A6C10E943519882331F0EE
:104E200080915F04811177C0C092BB030E94E00BA8
:104E3000892BB1F48091B7039091B803A091B90385
:104E4000B091BA03892B8A2B8B2B51F40E94C50C8D
:104E50006093B7037093B8038093B9039093BA0338
:104E60008090B7039090B803A090B903B090BA03B4
:104E700081149104A104B10409F491C00E94E00BD3
:104E8000019709F08CC00E94C50C681979098A093C
:104E90009B09693C71058105910508F03FC00E949E
:104EA000C50C681979098A099B0963337105810565
:104EB000910508F46CC00E94C50C681979098A092B
:104EC0009B09643F71408105910508F060C0109214
:104ED000B7031092B8031092B9031092BA038091ED
:104EE0000601803809F4C0C008F0B2C0803209F46D
:104EF000B9C080E8B4C090961C921E925F975E96EF
:104F00001C921E925D9773CE81E08093050101CFC4
:104F10008CE196E009CF0E94D41688CF0E94C50C80
:104F2000681979098A099B096838734181059105D7
:104F300008F0B5CF1092B7031092B8031092B903DE
:104F40001092BA03609105016D256093050186E01A
:104F500090E00E94152284EC97E00E94770B8091EC
:104F60000501882309F471C088EB97E00E94C816F8
:104F70008091050168EF72E0811102C06BE073E07F
:104F80008DE895E00E9481184092BB0308C0109202
:104F9000B7031092B8031092B9031092BA0380912C
:104FA000B4038111ACC00E94C50CAB01BC0180915F
:104FB000890590918A05A0918B05B0918C0500918F
:104FC0008505109186052091870530918805800F11
:104FD000911FA21FB31F84179507A607B70748F5AF
:104FE000C092B4030E94C50C6093890570938A0532
:104FF00080938B0590938C050091B5031091B603B7
:1050000060910401C8014B960E94390D6091B20372
:105010007091B303D801ED91FC9102A0F3A1E02DB2
:10502000C80109958091B5039091B6034B960E94F3
:105030007B0D6114710409F4EBCE0E94F40A8823FD
:1050400009F4DECE0E940000D7CE8EEA97E08ECF24
:10505000803C09F452C08F3F09F04BCF80E280932F
:10506000060104C080E4FBCF309206018CE897E093
:105070000E94770B809106010E949A1720910601E9
:10508000822F622D0E94652C80930401622F70E0B4
:1050900080E094E00E94852C60939405622F84E068
:1050A00090E00E941522109106018091B503909125
:1050B000B603612F4B960E94390D612FCE010196E8
:1050C0000E948B1866E173E0CE0107960E94D81803
:1050D000BE016F5F7F4FCE0107960E944D18BC0145
:1050E0008DE895E00E94B818CE0107960E94B81787
:1050F000CE0101960E94B81747CF8FEFB0CF813015
:1051000009F097CF0E94C50CAB01BC0180918905C5
:1051100090918A05A0918B05B0918C058C599F4F79
:10512000AF4FBF4F84179507A607B70708F081CF89
:105130001092B4030E94C50C6093890570938A0590
:1051400080938B0590938C050E9472160091B50395
:105150001091B603055E1F4F60E0C8010E94390D33
:10516000C80165CF113009F09BC00E94C50C609347
:10517000890570938A0580938B0590938C058DE744
:1051800097E00E94770B80915C048823B9F10E941C
:10519000BA080E94591780916504882329F187E78E
:1051A00097E00E94C81680915D0481116FC08091C4
:1051B0005F048D1521F080915E04811167C00E940B
:1051C000BA088093B403809106018093930580917F
:1051D000B403882309F45DC0B2E0B093BB038EE151
:1051E00097E00E94C81625CF80916304882319F0A8
:1051F0008EE697E0D6CF86E697E0D3CF80915D0428
:10520000882319F082E697E0CCCF80915F04811764
:1052100081F180915E04882361F189E597E00E9425
:10522000C8168DE497E00E94770B809182050E945A
:105230009A1783E497E00E94770B809183050E9480
:10524000931780E20E94920BCE0101960E941719DB
:10525000CE0101960E94F416CE0101960E94B81765
:105260008AE397E00E94770B0E94BA080E94871792
:105270009ACF80916204882319F080E397E091CF60
:105280008FE30E94920B0E94C4168DCFC092B4038C
:105290009ACF8DE097E00E94C8165092BB03C9CE0A
:1052A000123009F076C00091B403011129C00E94A8
:1052B00072160091B5031091B603055E1F4F60E0B2
:1052C000C8010E94390DC8010E947B0D8091050123
:1052D000882329F05092BB038CEF96E082CF0E9486
:1052E000D4161092BB030E94C50C6093890570937D
:1052F0008A0580938B0590938C0587EF96E071CF9C
:1053000010919305F09006011F111CC088EE96E0E5
:105310000E94770B802F0E949A170E9472160091AC
:10532000B5031091B603055E1F4FF09093056F2DE6
:10533000C8010E94390DC8010E947B0DFA94F092B9
:10534000930577CE112309F474CE0E94C50C2091E9
:10535000940530E050E040E00E94992C672B682BC8
:10536000692B09F066CE123070F01150109393053E
:105370000E9472160091B5031091B603055E1F4F8F
:1053800060919305EACEF092930501500093B40327
:10539000EFCF173009F075C0E090B503F090B60379
:1053A000F701A084B184178AD48AD58A6091040158
:1053B000C7014B960E94390D8091B2039091B303BF
:1053C000D70153969C938E93529751969C938E93AC
:1053D0005097188A1F861E861D8618861F821A827D
:1053E00019828E010F5F1F4F9E01295F3F4FAE0153
:1053F000435F5F4FBE01615F7F4FC7010E94170986
:10540000B1E0AB1AB1088F8198859195819591098A
:105410008A159B050CF0C0C18091B5039091B6032D
:10542000DC01ED91FC9102A0F3A1E02D70E060E0C1
:1054300009958091B5039091B603FC01B586A486C9
:10544000178616866DE875E00E947C0A8091B50388
:105450009091B6034B960E947B0D62E370E080E072
:1054600090E00E94930C0E943519882349F28091A4
:105470005F04811103C0C092BB03EFC00E94D41629
:10548000BFCF133009F0FBC0109293058091B50394
:105490009091B6036091B4037091B503DC01ED9176
:1054A000FC9102A0F3A1E02D09950091B5031091A4
:1054B000B603055E1F4F60E0C8010E94390DC801A8
:1054C0000E947B0D80910501882309F4D1C08AEDEB
:1054D00096E00E94770BCE0101960E94F31FCE0149
:1054E00001960E94F416CE0101960E94B817009111
:1054F000B5031091B603F801E084F184178AD48AC9
:10550000D58A60910401C8014B960E94390D8091A3
:10551000B2039091B303D80153969C938E93529704
:1055200051969C938E93509780915C0463E273E054
:1055300081110CC080915F048D1531F080915E0463
:1055400068E273E0811102C06DE771E08DE895E0DB
:105550000E948118CE0101960E94F31F6DE875E04C
:10556000CE0107960E94CF18BE016F5F7F4FCE011C
:1055700007960E944D18BC018DE895E00E94B8186E
:10558000CE0107960E94B817CE0101960E94B81767
:105590008CEC96E00E94770B8DE895E00E94F41663
:1055A000188A1F861E861D8618861F821A821982F7
:1055B0008E010F5F1F4F9E01295F3F4FAE01435F7A
:1055C0005F4FBE01615F7F4F8091B5039091B6033D
:1055D0000E9417090E94D416B1E0EB1AF1088F81DE
:1055E00098859195819591098E159F0584F58091F7
:1055F000B5039091B603DC01ED91FC9102A0F3A1FB
:10560000E02D70E060E009958091B5039091B603BC
:10561000FC01F586E486178616866DE875E00E9423
:105620007C0A8091B5039091B6034B960E947B0D46
:1056300062E370E080E090E00E94930C0E943519D4
:10564000882351F280915F048111C4CF14CF87EC7D
:1056500096E00E94C8161092BB030E94C50C60938E
:10566000890570938A0580938B0590938C05E1CC16
:1056700082EC96E00E94C8160E94D416ECCF15303A
:1056800009F058C0109193051123A9F00E94C50C90
:105690001150109393050E9472160091B50310915A
:1056A000B603055E1F4F60919305C8010E94390D36
:1056B000C8010E947B0D0E94C50CAB01BC0180910A
:1056C000890590918A05A0918B05B0918C05885130
:1056D0009C4FAF4FBF4F84179507A607B70708F039
:1056E000A8CC86EB96E00E94C8168091B5039091F5
:1056F000B603DC01ED91FC9102A0F3A1E02D70E076
:1057000060E009950091B5031091B603055E1F4F47
:1057100060919305C8010E94390DC8010E947B0D5C
:105720008EEA96E00E94C8160E94D416B6E0B093A6
:10573000BB037FCC163009F07CCC0E94351988233E
:1057400039F080915F04882309F495CE0E94D41625
:105750000E94C50CAB01BC018091890590918A051E
:10576000A0918B05B0918C058854944FAF4FBF4FDB
:1057700084179507A607B70708F05BCC0E94C50CF5
:105780006093890570938A0580938B0590938C05AF
:1057900089EA96E00E94C8161092BB034ACC8DE8B5
:1057A00095E00C94B817FB01DC0105900D920020E8
:1057B000E1F70895FC0105900020E9F780959095A8
:1057C0008E0F9F1F0895BB274A3031F4992322F48E
:1057D000BDE2909581959F4F0C94EF2BBB27FB0169
:1057E0005527AA27880F991FAA1FA41710F0A41BDA
:1057F00083955051B9F7A05DAA3308F0A95DA19334
:10580000009779F7B111B1931192CB010C94082C48
:10581000DC01FC01672F71917723E1F7329704C017
:105820007C916D9370836291AE17BF07C8F30895A2
:10583000F999FECF92BD81BDF89A992780B5089558
:10584000262FF999FECF1FBA92BD81BD20BD0FB69C
:10585000F894FA9AF99A0FBE019608952F923F9202
:105860004F925F926F927F928F929F92AF92BF9270
:10587000CF92DF92EF92FF920F931F93CF93DF931C
:10588000CDB7DEB7CA1BDB0B0FB6F894DEBF0FBE79
:10589000CDBF09942A88398848885F846E847D84C6
:1058A0008C849B84AA84B984C884DF80EE80FD80C8
:1058B0000C811B81AA81B981CE0FD11D0FB6F8943E
:1058C000DEBF0FBECDBFED010895991B79E004C086
:1058D000991F961708F0961B881F7A95C9F780952F
:1058E0000895AA1BBB1B51E107C0AA1FBB1FA61727
:1058F000B70710F0A61BB70B881F991F5A95A9F779
:1059000080959095BC01CD01089597FB072E16F464
:10591000009407D077FD09D00E94712C07FC05D0B8
:105920003EF4909581959F4F0895709561957F4FB6
:105930000895A1E21A2EAA1BBB1BFD010DC0AA1FD0
:10594000BB1FEE1FFF1FA217B307E407F50720F0E8
:10595000A21BB30BE40BF50B661F771F881F991F63
:105960001A9469F760957095809590959B01AC01AC
:10597000BD01CF010895052E97FB1EF400940E94EF
:10598000D22C57FD07D00E94992C07FC03D04EF46F
:105990000C94D22C50954095309521953F4F4F4F08
:1059A0005F4F089590958095709561957F4F8F4FCB
:1059B0009F4F0895EE0FFF1F0590F491E02D09947D
:1059C0000F931F93CF93DF938230910510F482E001
:1059D00090E0E0919705F091980530E020E0B0E08C
:1059E000A0E0309799F42115310509F44AC0281B2D
:1059F000390B24303105D8F58A819B8161157105F9
:105A000089F1FB0193838283FE0111C040815181A2
:105A10000281138148175907E0F04817590799F494
:105A2000109761F012960C93129713961C9332966E
:105A3000CF01DF91CF911F910F91089500939705AA
:105A400010939805F4CF2115310551F042175307F3
:105A500038F0A901DB019A01BD01DF01F801C1CFD6
:105A6000EF01F9CF9093980580939705CDCFFE0174
:105A7000E20FF31F819391932250310939832883D8
:105A8000D7CF2091950530919605232B41F4209195
:105A9000090130910A0130939605209395052091D4
:105AA0000701309108012115310541F42DB73EB7AA
:105AB00040910B0150910C01241B350BE091950591
:105AC000F0919605E217F307A0F42E1B3F0B281761
:105AD000390778F0AC014E5F5F4F2417350748F067
